{
	"data": {
		"bytecode": {
			"linkReferences": {},
			"object": "608060405234801561000f575f80fd5b50604051611bdc380380611bdc83398181016040528101906100319190610464565b6103e8825110610076576040517f08c379a000000000000000000000000000000000000000000000000000000000815260040161006d9061053e565b60405180910390fd5b335f806101000a81548173ffffffffffffffffffffffffffffffffffffffff021916908373ffffffffffffffffffffffffffffffffffffffff16021790555081600390805190602001906100cb929190610130565b50806005819055505f5b8251811015610128575f60018483815181106100f4576100f361055c565b5b602002602001015160405161010991906105cd565b90815260200160405180910390208190555080806001019150506100d5565b5050506108ac565b828054828255905f5260205f20908101928215610176579160200282015b8281111561017557825182908161016591906107dd565b509160200191906001019061014e565b5b5090506101839190610187565b5090565b5b808211156101a6575f818161019d91906101aa565b50600101610188565b5090565b5080546101b690610610565b5f825580601f106101c757506101e4565b601f0160209004905f5260205f20908101906101e391906101e7565b5b50565b5b808211156101fe575f815f9055506001016101e8565b5090565b5f604051905090565b5f80fd5b5f80fd5b5f80fd5b5f601f19601f8301169050919050565b7f4e487b71000000000000000000000000000000000000000000000000000000005f52604160045260245ffd5b61025d82610217565b810181811067ffffffffffffffff8211171561027c5761027b610227565b5b80604052505050565b5f61028e610202565b905061029a8282610254565b919050565b5f67ffffffffffffffff8211156102b9576102b8610227565b5b602082029050602081019050919050565b5f80fd5b5f80fd5b5f67ffffffffffffffff8211156102ec576102eb610227565b5b6102f582610217565b9050602081019050919050565b8281835e5f83830152505050565b5f61032261031d846102d2565b610285565b90508281526020810184848401111561033e5761033d6102ce565b5b610349848285610302565b509392505050565b5f82601f83011261036557610364610213565b5b8151610375848260208601610310565b91505092915050565b5f61039061038b8461029f565b610285565b905080838252602082019050602084028301858111156103b3576103b26102ca565b5b835b818110156103fa57805167ffffffffffffffff8111156103d8576103d7610213565b5b8086016103e58982610351565b855260208501945050506020810190506103b5565b5050509392505050565b5f82601f83011261041857610417610213565b5b815161042884826020860161037e565b91505092915050565b5f819050919050565b61044381610431565b811461044d575f80fd5b50565b5f8151905061045e8161043a565b92915050565b5f806040838503121561047a5761047961020b565b5b5f83015167ffffffffffffffff8111156104975761049661020f565b5b6104a385828601610404565b92505060206104b485828601610450565b9150509250929050565b5f82825260208201905092915050565b7f5a7520686f686520416e7a61686c204f7074696f6e656e2c206175666772756e5f8201527f6420686f686572204b6f7374656e206e69636874206d6f65676c696368000000602082015250565b5f610528603d836104be565b9150610533826104ce565b604082019050919050565b5f6020820190508181035f8301526105558161051c565b9050919050565b7f4e487b71000000000000000000000000000000000000000000000000000000005f52603260045260245ffd5b5f81519050919050565b5f81905092915050565b5f6105a782610589565b6105b18185610593565b93506105c1818560208601610302565b80840191505092915050565b5f6105d8828461059d565b915081905092915050565b7f4e487b71000000000000000000000000000000000000000000000000000000005f52602260045260245ffd5b5f600282049050600182168061062757607f821691505b60208210810361063a576106396105e3565b5b50919050565b5f819050815f5260205f209050919050565b5f6020601f8301049050919050565b5f82821b905092915050565b5f6008830261069c7fffffffffffffffffffffffffffffffffffffffffffffffffffffffffffffffff82610661565b6106a68683610661565b95508019841693508086168417925050509392505050565b5f819050919050565b5f6106e16106dc6106d784610431565b6106be565b610431565b9050919050565b5f819050919050565b6106fa836106c7565b61070e610706826106e8565b84845461066d565b825550505050565b5f90565b610722610716565b61072d8184846106f1565b505050565b5b81811015610750576107455f8261071a565b600181019050610733565b5050565b601f8211156107955761076681610640565b61076f84610652565b8101602085101561077e578190505b61079261078a85610652565b830182610732565b50505b505050565b5f82821c905092915050565b5f6107b55f198460080261079a565b1980831691505092915050565b5f6107cd83836107a6565b9150826002028217905092915050565b6107e682610589565b67ffffffffffffffff8111156107ff576107fe610227565b5b6108098254610610565b610814828285610754565b5f60209050601f831160018114610845575f8415610833578287015190505b61083d85826107c2565b8655506108a4565b601f19841661085386610640565b5f5b8281101561087a57848901518255600182019150602085019450602081019050610855565b868310156108975784890151610893601f8916826107a6565b8355505b6001600288020188555050505b505050505050565b611323806108b95f395ff3fe608060405234801561000f575f80fd5b506004361061009c575f3560e01c80638da5cb5b116100645780638da5cb5b146101445780639a0e7d6614610162578063bcd8ec7f14610180578063c3403ddf1461019f578063cecb5fc7146101a95761009c565b80631ec6b60a146100a05780632eea87ea146100aa578063323082d7146100da578063387bfd1d146100f6578063805265e514610114575b5f80fd5b6100a86101c7565b005b6100c460048036038101906100bf919061092f565b610277565b6040516100d191906109ca565b60405180910390f35b6100f460048036038101906100ef9190610b16565b61031d565b005b6100fe6104d5565b60405161010b9190610b77565b60405180910390f35b61012e60048036038101906101299190610b16565b6104e7565b60405161013b9190610b9f565b60405180910390f35b61014c61050e565b6040516101599190610bf7565b60405180910390f35b61016a610531565b6040516101779190610b9f565b60405180910390f35b6101886105a1565b604051610196929190610c10565b60405180910390f35b6101a761077a565b005b6101b1610873565b6040516101be9190610b9f565b60405180910390f35b5f8054906101000a900473ffffffffffffffffffffffffffffffffffffffff1673ffffffffffffffffffffffffffffffffffffffff163373ffffffffffffffffffffffffffffffffffffffff1614610254576040517f08c379a000000000000000000000000000000000000000000000000000000000815260040161024b90610cae565b60405180910390fd5b600160025f6101000a81548160ff02191690831515021790555043600681905550565b60038181548110610286575f80fd5b905f5260205f20015f91509050805461029e90610cf9565b80601f01602080910402602001604051908101604052809291908181526020018280546102ca90610cf9565b80156103155780601f106102ec57610100808354040283529160200191610315565b820191905f5260205f20905b8154815290600101906020018083116102f857829003601f168201915b505050505081565b6001151560025f9054906101000a900460ff16151514610372576040517f08c379a000000000000000000000000000000000000000000000000000000000815260040161036990610d73565b60405180910390fd5b61037b81610879565b6103ba576040517f08c379a00000000000000000000000000000000000000000000000000000000081526004016103b190610ddb565b60405180910390fd5b5f151560045f3373ffffffffffffffffffffffffffffffffffffffff1673ffffffffffffffffffffffffffffffffffffffff1681526020019081526020015f205f9054906101000a900460ff16151514610449576040517f08c379a000000000000000000000000000000000000000000000000000000000815260040161044090610e43565b60405180910390fd5b600160045f3373ffffffffffffffffffffffffffffffffffffffff1673ffffffffffffffffffffffffffffffffffffffff1681526020019081526020015f205f6101000a81548160ff021916908315150217905550600180826040516104af9190610e9b565b90815260200160405180910390205f8282546104cb9190610ede565b9250508190555050565b60025f9054906101000a900460ff1681565b5f6001826040516104f89190610e9b565b9081526020016040518091039020549050919050565b5f8054906101000a900473ffffffffffffffffffffffffffffffffffffffff1681565b5f805f90505f5b6003805490508110156105995760016003828154811061055b5761055a610f11565b5b905f5260205f20016040516105709190610fd0565b9081526020016040518091039020548261058a9190610ede565b91508080600101915050610538565b508091505090565b60605f80151560025f9054906101000a900460ff161515146105f8576040517f08c379a00000000000000000000000000000000000000000000000000000000081526004016105ef90611056565b60405180910390fd5b5f60405180602001604052805f81525090505f805b60038054905081101561074a578160016003838154811061063157610630610f11565b5b905f5260205f20016040516106469190610fd0565b908152602001604051809103902054111561073d5760016003828154811061067157610670610f11565b5b905f5260205f20016040516106869190610fd0565b9081526020016040518091039020549150600381815481106106ab576106aa610f11565b5b905f5260205f200180546106be90610cf9565b80601f01602080910402602001604051908101604052809291908181526020018280546106ea90610cf9565b80156107355780601f1061070c57610100808354040283529160200191610735565b820191905f5260205f20905b81548152906001019060200180831161071857829003601f168201915b505050505092505b808060010191505061060d565b505f610754610531565b6064836107619190611074565b61076b91906110e2565b90508281945094505050509091565b5f8054906101000a900473ffffffffffffffffffffffffffffffffffffffff1673ffffffffffffffffffffffffffffffffffffffff163373ffffffffffffffffffffffffffffffffffffffff1614610807576040517f08c379a00000000000000000000000000000000000000000000000000000000081526004016107fe90611182565b60405180910390fd5b6005546006544361081891906111a0565b11610858576040517f08c379a000000000000000000000000000000000000000000000000000000000815260040161084f9061121d565b60405180910390fd5b5f60025f6101000a81548160ff021916908315150217905550565b60055481565b5f805f90505b6003805490508110156108e1578280519060200120600382815481106108a8576108a7610f11565b5b905f5260205f20016040516108bd91906112d7565b6040518091039020036108d45760019150506108e6565b808060010191505061087f565b505f90505b919050565b5f604051905090565b5f80fd5b5f80fd5b5f819050919050565b61090e816108fc565b8114610918575f80fd5b50565b5f8135905061092981610905565b92915050565b5f60208284031215610944576109436108f4565b5b5f6109518482850161091b565b91505092915050565b5f81519050919050565b5f82825260208201905092915050565b8281835e5f83830152505050565b5f601f19601f8301169050919050565b5f61099c8261095a565b6109a68185610964565b93506109b6818560208601610974565b6109bf81610982565b840191505092915050565b5f6020820190508181035f8301526109e28184610992565b905092915050565b5f80fd5b5f80fd5b7f4e487b71000000000000000000000000000000000000000000000000000000005f52604160045260245ffd5b610a2882610982565b810181811067ffffffffffffffff82111715610a4757610a466109f2565b5b80604052505050565b5f610a596108eb565b9050610a658282610a1f565b919050565b5f67ffffffffffffffff821115610a8457610a836109f2565b5b610a8d82610982565b9050602081019050919050565b828183375f83830152505050565b5f610aba610ab584610a6a565b610a50565b905082815260208101848484011115610ad657610ad56109ee565b5b610ae1848285610a9a565b509392505050565b5f82601f830112610afd57610afc6109ea565b5b8135610b0d848260208601610aa8565b91505092915050565b5f60208284031215610b2b57610b2a6108f4565b5b5f82013567ffffffffffffffff811115610b4857610b476108f8565b5b610b5484828501610ae9565b91505092915050565b5f8115159050919050565b610b7181610b5d565b82525050565b5f602082019050610b8a5f830184610b68565b92915050565b610b99816108fc565b82525050565b5f602082019050610bb25f830184610b90565b92915050565b5f73ffffffffffffffffffffffffffffffffffffffff82169050919050565b5f610be182610bb8565b9050919050565b610bf181610bd7565b82525050565b5f602082019050610c0a5f830184610be8565b92915050565b5f6040820190508181035f830152610c288185610992565b9050610c376020830184610b90565b9392505050565b7f4e7572204265736974657220646172662064617320566f74696e6720737461725f8201527f74656e0000000000000000000000000000000000000000000000000000000000602082015250565b5f610c98602383610964565b9150610ca382610c3e565b604082019050919050565b5f6020820190508181035f830152610cc581610c8c565b9050919050565b7f4e487b71000000000000000000000000000000000000000000000000000000005f52602260045260245ffd5b5f6002820490506001821680610d1057607f821691505b602082108103610d2357610d22610ccc565b5b50919050565b7f4469652041627374696d6d756e6720697374206e6963687420616b74697600005f82015250565b5f610d5d601e83610964565b9150610d6882610d29565b602082019050919050565b5f6020820190508181035f830152610d8a81610d51565b9050919050565b7f4469652041627374696d6d756e672069737420756e6775656c746967000000005f82015250565b5f610dc5601c83610964565b9150610dd082610d91565b602082019050919050565b5f6020820190508181035f830152610df281610db9565b9050919050565b7f53696520686162656e207363686f6e20616267657374696d6d740000000000005f82015250565b5f610e2d601a83610964565b9150610e3882610df9565b602082019050919050565b5f6020820190508181035f830152610e5a81610e21565b9050919050565b5f81905092915050565b5f610e758261095a565b610e7f8185610e61565b9350610e8f818560208601610974565b80840191505092915050565b5f610ea68284610e6b565b915081905092915050565b7f4e487b71000000000000000000000000000000000000000000000000000000005f52601160045260245ffd5b5f610ee8826108fc565b9150610ef3836108fc565b9250828201905080821115610f0b57610f0a610eb1565b5b92915050565b7f4e487b71000000000000000000000000000000000000000000000000000000005f52603260045260245ffd5b5f819050815f5260205f209050919050565b5f8154610f5c81610cf9565b610f668186610e61565b9450600182165f8114610f805760018114610f9557610fc7565b60ff1983168652811515820286019350610fc7565b610f9e85610f3e565b5f5b83811015610fbf57815481890152600182019150602081019050610fa0565b838801955050505b50505092915050565b5f610fdb8284610f50565b915081905092915050565b7f41627374696d6d756e6720697374206e6f636820616b7469762e2045726765625f8201527f6e697320697374206e6f6368206e6963687420766572667565676261722e0000602082015250565b5f611040603e83610964565b915061104b82610fe6565b604082019050919050565b5f6020820190508181035f83015261106d81611034565b9050919050565b5f61107e826108fc565b9150611089836108fc565b9250828202611097816108fc565b915082820484148315176110ae576110ad610eb1565b5b5092915050565b7f4e487b71000000000000000000000000000000000000000000000000000000005f52601260045260245ffd5b5f6110ec826108fc565b91506110f7836108fc565b925082611107576111066110b5565b5b828204905092915050565b7f4e7572204265736974657220646172662064617320566f74696e67206265656e5f8201527f64656e0000000000000000000000000000000000000000000000000000000000602082015250565b5f61116c602383610964565b915061117782611112565b604082019050919050565b5f6020820190508181035f83015261119981611160565b9050919050565b5f6111aa826108fc565b91506111b5836108fc565b92508282039050818111156111cd576111cc610eb1565b5b92915050565b7f5a656974206e6f6368206e6963687420616267656c617566656e0000000000005f82015250565b5f611207601a83610964565b9150611212826111d3565b602082019050919050565b5f6020820190508181035f830152611234816111fb565b9050919050565b5f81905092915050565b5f819050815f5260205f209050919050565b5f815461126381610cf9565b61126d818661123b565b9450600182165f8114611287576001811461129c576112ce565b60ff19831686528115158202860193506112ce565b6112a585611245565b5f5b838110156112c6578154818901526001820191506020810190506112a7565b838801955050505b50505092915050565b5f6112e28284611257565b91508190509291505056fea264697066735822122000f1b3db7190e6883637f8c5de65bfe2836ba42eb24c4023bb45f560a711591464736f6c634300081a0033",
			"opcodes": "PUSH1 0x80 PUSH1 0x40 MSTORE CALLVALUE DUP1 ISZERO PUSH2 0xF JUMPI PUSH0 DUP1 REVERT JUMPDEST POP PUSH1 0x40 MLOAD PUSH2 0x1BDC CODESIZE SUB DUP1 PUSH2 0x1BDC DUP4 CODECOPY DUP2 DUP2 ADD PUSH1 0x40 MSTORE DUP2 ADD SWAP1 PUSH2 0x31 SWAP2 SWAP1 PUSH2 0x464 JUMP JUMPDEST PUSH2 0x3E8 DUP3 MLOAD LT PUSH2 0x76 JUMPI PUSH1 0x40 MLOAD PUSH32 0x8C379A000000000000000000000000000000000000000000000000000000000 DUP2 MSTORE PUSH1 0x4 ADD PUSH2 0x6D SWAP1 PUSH2 0x53E JUMP JUMPDEST PUSH1 0x40 MLOAD DUP1 SWAP2 SUB SWAP1 REVERT JUMPDEST CALLER PUSH0 DUP1 PUSH2 0x100 EXP DUP2 SLOAD DUP2 PUSH20 0xFFFFFFFFFFFFFFFFFFFFFFFFFFFFFFFFFFFFFFFF MUL NOT AND SWAP1 DUP4 PUSH20 0xFFFFFFFFFFFFFFFFFFFFFFFFFFFFFFFFFFFFFFFF AND MUL OR SWAP1 SSTORE POP DUP2 PUSH1 0x3 SWAP1 DUP1 MLOAD SWAP1 PUSH1 0x20 ADD SWAP1 PUSH2 0xCB SWAP3 SWAP2 SWAP1 PUSH2 0x130 JUMP JUMPDEST POP DUP1 PUSH1 0x5 DUP2 SWAP1 SSTORE POP PUSH0 JUMPDEST DUP3 MLOAD DUP2 LT ISZERO PUSH2 0x128 JUMPI PUSH0 PUSH1 0x1 DUP5 DUP4 DUP2 MLOAD DUP2 LT PUSH2 0xF4 JUMPI PUSH2 0xF3 PUSH2 0x55C JUMP JUMPDEST JUMPDEST PUSH1 0x20 MUL PUSH1 0x20 ADD ADD MLOAD PUSH1 0x40 MLOAD PUSH2 0x109 SWAP2 SWAP1 PUSH2 0x5CD JUMP JUMPDEST SWAP1 DUP2 MSTORE PUSH1 0x20 ADD PUSH1 0x40 MLOAD DUP1 SWAP2 SUB SWAP1 KECCAK256 DUP2 SWAP1 SSTORE POP DUP1 DUP1 PUSH1 0x1 ADD SWAP2 POP POP PUSH2 0xD5 JUMP JUMPDEST POP POP POP PUSH2 0x8AC JUMP JUMPDEST DUP3 DUP1 SLOAD DUP3 DUP3 SSTORE SWAP1 PUSH0 MSTORE PUSH1 0x20 PUSH0 KECCAK256 SWAP1 DUP2 ADD SWAP3 DUP3 ISZERO PUSH2 0x176 JUMPI SWAP2 PUSH1 0x20 MUL DUP3 ADD JUMPDEST DUP3 DUP2 GT ISZERO PUSH2 0x175 JUMPI DUP3 MLOAD DUP3 SWAP1 DUP2 PUSH2 0x165 SWAP2 SWAP1 PUSH2 0x7DD JUMP JUMPDEST POP SWAP2 PUSH1 0x20 ADD SWAP2 SWAP1 PUSH1 0x1 ADD SWAP1 PUSH2 0x14E JUMP JUMPDEST JUMPDEST POP SWAP1 POP PUSH2 0x183 SWAP2 SWAP1 PUSH2 0x187 JUMP JUMPDEST POP SWAP1 JUMP JUMPDEST JUMPDEST DUP1 DUP3 GT ISZERO PUSH2 0x1A6 JUMPI PUSH0 DUP2 DUP2 PUSH2 0x19D SWAP2 SWAP1 PUSH2 0x1AA JUMP JUMPDEST POP PUSH1 0x1 ADD PUSH2 0x188 JUMP JUMPDEST POP SWAP1 JUMP JUMPDEST POP DUP1 SLOAD PUSH2 0x1B6 SWAP1 PUSH2 0x610 JUMP JUMPDEST PUSH0 DUP3 SSTORE DUP1 PUSH1 0x1F LT PUSH2 0x1C7 JUMPI POP PUSH2 0x1E4 JUMP JUMPDEST PUSH1 0x1F ADD PUSH1 0x20 SWAP1 DIV SWAP1 PUSH0 MSTORE PUSH1 0x20 PUSH0 KECCAK256 SWAP1 DUP2 ADD SWAP1 PUSH2 0x1E3 SWAP2 SWAP1 PUSH2 0x1E7 JUMP JUMPDEST JUMPDEST POP JUMP JUMPDEST JUMPDEST DUP1 DUP3 GT ISZERO PUSH2 0x1FE JUMPI PUSH0 DUP2 PUSH0 SWAP1 SSTORE POP PUSH1 0x1 ADD PUSH2 0x1E8 JUMP JUMPDEST POP SWAP1 JUMP JUMPDEST PUSH0 PUSH1 0x40 MLOAD SWAP1 POP SWAP1 JUMP JUMPDEST PUSH0 DUP1 REVERT JUMPDEST PUSH0 DUP1 REVERT JUMPDEST PUSH0 DUP1 REVERT JUMPDEST PUSH0 PUSH1 0x1F NOT PUSH1 0x1F DUP4 ADD AND SWAP1 POP SWAP2 SWAP1 POP JUMP JUMPDEST PUSH32 0x4E487B7100000000000000000000000000000000000000000000000000000000 PUSH0 MSTORE PUSH1 0x41 PUSH1 0x4 MSTORE PUSH1 0x24 PUSH0 REVERT JUMPDEST PUSH2 0x25D DUP3 PUSH2 0x217 JUMP JUMPDEST DUP2 ADD DUP2 DUP2 LT PUSH8 0xFFFFFFFFFFFFFFFF DUP3 GT OR ISZERO PUSH2 0x27C JUMPI PUSH2 0x27B PUSH2 0x227 JUMP JUMPDEST JUMPDEST DUP1 PUSH1 0x40 MSTORE POP POP POP JUMP JUMPDEST PUSH0 PUSH2 0x28E PUSH2 0x202 JUMP JUMPDEST SWAP1 POP PUSH2 0x29A DUP3 DUP3 PUSH2 0x254 JUMP JUMPDEST SWAP2 SWAP1 POP JUMP JUMPDEST PUSH0 PUSH8 0xFFFFFFFFFFFFFFFF DUP3 GT ISZERO PUSH2 0x2B9 JUMPI PUSH2 0x2B8 PUSH2 0x227 JUMP JUMPDEST JUMPDEST PUSH1 0x20 DUP3 MUL SWAP1 POP PUSH1 0x20 DUP2 ADD SWAP1 POP SWAP2 SWAP1 POP JUMP JUMPDEST PUSH0 DUP1 REVERT JUMPDEST PUSH0 DUP1 REVERT JUMPDEST PUSH0 PUSH8 0xFFFFFFFFFFFFFFFF DUP3 GT ISZERO PUSH2 0x2EC JUMPI PUSH2 0x2EB PUSH2 0x227 JUMP JUMPDEST JUMPDEST PUSH2 0x2F5 DUP3 PUSH2 0x217 JUMP JUMPDEST SWAP1 POP PUSH1 0x20 DUP2 ADD SWAP1 POP SWAP2 SWAP1 POP JUMP JUMPDEST DUP3 DUP2 DUP4 MCOPY PUSH0 DUP4 DUP4 ADD MSTORE POP POP POP JUMP JUMPDEST PUSH0 PUSH2 0x322 PUSH2 0x31D DUP5 PUSH2 0x2D2 JUMP JUMPDEST PUSH2 0x285 JUMP JUMPDEST SWAP1 POP DUP3 DUP2 MSTORE PUSH1 0x20 DUP2 ADD DUP5 DUP5 DUP5 ADD GT ISZERO PUSH2 0x33E JUMPI PUSH2 0x33D PUSH2 0x2CE JUMP JUMPDEST JUMPDEST PUSH2 0x349 DUP5 DUP3 DUP6 PUSH2 0x302 JUMP JUMPDEST POP SWAP4 SWAP3 POP POP POP JUMP JUMPDEST PUSH0 DUP3 PUSH1 0x1F DUP4 ADD SLT PUSH2 0x365 JUMPI PUSH2 0x364 PUSH2 0x213 JUMP JUMPDEST JUMPDEST DUP2 MLOAD PUSH2 0x375 DUP5 DUP3 PUSH1 0x20 DUP7 ADD PUSH2 0x310 JUMP JUMPDEST SWAP2 POP POP SWAP3 SWAP2 POP POP JUMP JUMPDEST PUSH0 PUSH2 0x390 PUSH2 0x38B DUP5 PUSH2 0x29F JUMP JUMPDEST PUSH2 0x285 JUMP JUMPDEST SWAP1 POP DUP1 DUP4 DUP3 MSTORE PUSH1 0x20 DUP3 ADD SWAP1 POP PUSH1 0x20 DUP5 MUL DUP4 ADD DUP6 DUP2 GT ISZERO PUSH2 0x3B3 JUMPI PUSH2 0x3B2 PUSH2 0x2CA JUMP JUMPDEST JUMPDEST DUP4 JUMPDEST DUP2 DUP2 LT ISZERO PUSH2 0x3FA JUMPI DUP1 MLOAD PUSH8 0xFFFFFFFFFFFFFFFF DUP2 GT ISZERO PUSH2 0x3D8 JUMPI PUSH2 0x3D7 PUSH2 0x213 JUMP JUMPDEST JUMPDEST DUP1 DUP7 ADD PUSH2 0x3E5 DUP10 DUP3 PUSH2 0x351 JUMP JUMPDEST DUP6 MSTORE PUSH1 0x20 DUP6 ADD SWAP5 POP POP POP PUSH1 0x20 DUP2 ADD SWAP1 POP PUSH2 0x3B5 JUMP JUMPDEST POP POP POP SWAP4 SWAP3 POP POP POP JUMP JUMPDEST PUSH0 DUP3 PUSH1 0x1F DUP4 ADD SLT PUSH2 0x418 JUMPI PUSH2 0x417 PUSH2 0x213 JUMP JUMPDEST JUMPDEST DUP2 MLOAD PUSH2 0x428 DUP5 DUP3 PUSH1 0x20 DUP7 ADD PUSH2 0x37E JUMP JUMPDEST SWAP2 POP POP SWAP3 SWAP2 POP POP JUMP JUMPDEST PUSH0 DUP2 SWAP1 POP SWAP2 SWAP1 POP JUMP JUMPDEST PUSH2 0x443 DUP2 PUSH2 0x431 JUMP JUMPDEST DUP2 EQ PUSH2 0x44D JUMPI PUSH0 DUP1 REVERT JUMPDEST POP JUMP JUMPDEST PUSH0 DUP2 MLOAD SWAP1 POP PUSH2 0x45E DUP2 PUSH2 0x43A JUMP JUMPDEST SWAP3 SWAP2 POP POP JUMP JUMPDEST PUSH0 DUP1 PUSH1 0x40 DUP4 DUP6 SUB SLT ISZERO PUSH2 0x47A JUMPI PUSH2 0x479 PUSH2 0x20B JUMP JUMPDEST JUMPDEST PUSH0 DUP4 ADD MLOAD PUSH8 0xFFFFFFFFFFFFFFFF DUP2 GT ISZERO PUSH2 0x497 JUMPI PUSH2 0x496 PUSH2 0x20F JUMP JUMPDEST JUMPDEST PUSH2 0x4A3 DUP6 DUP3 DUP7 ADD PUSH2 0x404 JUMP JUMPDEST SWAP3 POP POP PUSH1 0x20 PUSH2 0x4B4 DUP6 DUP3 DUP7 ADD PUSH2 0x450 JUMP JUMPDEST SWAP2 POP POP SWAP3 POP SWAP3 SWAP1 POP JUMP JUMPDEST PUSH0 DUP3 DUP3 MSTORE PUSH1 0x20 DUP3 ADD SWAP1 POP SWAP3 SWAP2 POP POP JUMP JUMPDEST PUSH32 0x5A7520686F686520416E7A61686C204F7074696F6E656E2C206175666772756E PUSH0 DUP3 ADD MSTORE PUSH32 0x6420686F686572204B6F7374656E206E69636874206D6F65676C696368000000 PUSH1 0x20 DUP3 ADD MSTORE POP JUMP JUMPDEST PUSH0 PUSH2 0x528 PUSH1 0x3D DUP4 PUSH2 0x4BE JUMP JUMPDEST SWAP2 POP PUSH2 0x533 DUP3 PUSH2 0x4CE JUMP JUMPDEST PUSH1 0x40 DUP3 ADD SWAP1 POP SWAP2 SWAP1 POP JUMP JUMPDEST PUSH0 PUSH1 0x20 DUP3 ADD SWAP1 POP DUP2 DUP2 SUB PUSH0 DUP4 ADD MSTORE PUSH2 0x555 DUP2 PUSH2 0x51C JUMP JUMPDEST SWAP1 POP SWAP2 SWAP1 POP JUMP JUMPDEST PUSH32 0x4E487B7100000000000000000000000000000000000000000000000000000000 PUSH0 MSTORE PUSH1 0x32 PUSH1 0x4 MSTORE PUSH1 0x24 PUSH0 REVERT JUMPDEST PUSH0 DUP2 MLOAD SWAP1 POP SWAP2 SWAP1 POP JUMP JUMPDEST PUSH0 DUP2 SWAP1 POP SWAP3 SWAP2 POP POP JUMP JUMPDEST PUSH0 PUSH2 0x5A7 DUP3 PUSH2 0x589 JUMP JUMPDEST PUSH2 0x5B1 DUP2 DUP6 PUSH2 0x593 JUMP JUMPDEST SWAP4 POP PUSH2 0x5C1 DUP2 DUP6 PUSH1 0x20 DUP7 ADD PUSH2 0x302 JUMP JUMPDEST DUP1 DUP5 ADD SWAP2 POP POP SWAP3 SWAP2 POP POP JUMP JUMPDEST PUSH0 PUSH2 0x5D8 DUP3 DUP5 PUSH2 0x59D JUMP JUMPDEST SWAP2 POP DUP2 SWAP1 POP SWAP3 SWAP2 POP POP JUMP JUMPDEST PUSH32 0x4E487B7100000000000000000000000000000000000000000000000000000000 PUSH0 MSTORE PUSH1 0x22 PUSH1 0x4 MSTORE PUSH1 0x24 PUSH0 REVERT JUMPDEST PUSH0 PUSH1 0x2 DUP3 DIV SWAP1 POP PUSH1 0x1 DUP3 AND DUP1 PUSH2 0x627 JUMPI PUSH1 0x7F DUP3 AND SWAP2 POP JUMPDEST PUSH1 0x20 DUP3 LT DUP2 SUB PUSH2 0x63A JUMPI PUSH2 0x639 PUSH2 0x5E3 JUMP JUMPDEST JUMPDEST POP SWAP2 SWAP1 POP JUMP JUMPDEST PUSH0 DUP2 SWAP1 POP DUP2 PUSH0 MSTORE PUSH1 0x20 PUSH0 KECCAK256 SWAP1 POP SWAP2 SWAP1 POP JUMP JUMPDEST PUSH0 PUSH1 0x20 PUSH1 0x1F DUP4 ADD DIV SWAP1 POP SWAP2 SWAP1 POP JUMP JUMPDEST PUSH0 DUP3 DUP3 SHL SWAP1 POP SWAP3 SWAP2 POP POP JUMP JUMPDEST PUSH0 PUSH1 0x8 DUP4 MUL PUSH2 0x69C PUSH32 0xFFFFFFFFFFFFFFFFFFFFFFFFFFFFFFFFFFFFFFFFFFFFFFFFFFFFFFFFFFFFFFFF DUP3 PUSH2 0x661 JUMP JUMPDEST PUSH2 0x6A6 DUP7 DUP4 PUSH2 0x661 JUMP JUMPDEST SWAP6 POP DUP1 NOT DUP5 AND SWAP4 POP DUP1 DUP7 AND DUP5 OR SWAP3 POP POP POP SWAP4 SWAP3 POP POP POP JUMP JUMPDEST PUSH0 DUP2 SWAP1 POP SWAP2 SWAP1 POP JUMP JUMPDEST PUSH0 PUSH2 0x6E1 PUSH2 0x6DC PUSH2 0x6D7 DUP5 PUSH2 0x431 JUMP JUMPDEST PUSH2 0x6BE JUMP JUMPDEST PUSH2 0x431 JUMP JUMPDEST SWAP1 POP SWAP2 SWAP1 POP JUMP JUMPDEST PUSH0 DUP2 SWAP1 POP SWAP2 SWAP1 POP JUMP JUMPDEST PUSH2 0x6FA DUP4 PUSH2 0x6C7 JUMP JUMPDEST PUSH2 0x70E PUSH2 0x706 DUP3 PUSH2 0x6E8 JUMP JUMPDEST DUP5 DUP5 SLOAD PUSH2 0x66D JUMP JUMPDEST DUP3 SSTORE POP POP POP POP JUMP JUMPDEST PUSH0 SWAP1 JUMP JUMPDEST PUSH2 0x722 PUSH2 0x716 JUMP JUMPDEST PUSH2 0x72D DUP2 DUP5 DUP5 PUSH2 0x6F1 JUMP JUMPDEST POP POP POP JUMP JUMPDEST JUMPDEST DUP2 DUP2 LT ISZERO PUSH2 0x750 JUMPI PUSH2 0x745 PUSH0 DUP3 PUSH2 0x71A JUMP JUMPDEST PUSH1 0x1 DUP2 ADD SWAP1 POP PUSH2 0x733 JUMP JUMPDEST POP POP JUMP JUMPDEST PUSH1 0x1F DUP3 GT ISZERO PUSH2 0x795 JUMPI PUSH2 0x766 DUP2 PUSH2 0x640 JUMP JUMPDEST PUSH2 0x76F DUP5 PUSH2 0x652 JUMP JUMPDEST DUP2 ADD PUSH1 0x20 DUP6 LT ISZERO PUSH2 0x77E JUMPI DUP2 SWAP1 POP JUMPDEST PUSH2 0x792 PUSH2 0x78A DUP6 PUSH2 0x652 JUMP JUMPDEST DUP4 ADD DUP3 PUSH2 0x732 JUMP JUMPDEST POP POP JUMPDEST POP POP POP JUMP JUMPDEST PUSH0 DUP3 DUP3 SHR SWAP1 POP SWAP3 SWAP2 POP POP JUMP JUMPDEST PUSH0 PUSH2 0x7B5 PUSH0 NOT DUP5 PUSH1 0x8 MUL PUSH2 0x79A JUMP JUMPDEST NOT DUP1 DUP4 AND SWAP2 POP POP SWAP3 SWAP2 POP POP JUMP JUMPDEST PUSH0 PUSH2 0x7CD DUP4 DUP4 PUSH2 0x7A6 JUMP JUMPDEST SWAP2 POP DUP3 PUSH1 0x2 MUL DUP3 OR SWAP1 POP SWAP3 SWAP2 POP POP JUMP JUMPDEST PUSH2 0x7E6 DUP3 PUSH2 0x589 JUMP JUMPDEST PUSH8 0xFFFFFFFFFFFFFFFF DUP2 GT ISZERO PUSH2 0x7FF JUMPI PUSH2 0x7FE PUSH2 0x227 JUMP JUMPDEST JUMPDEST PUSH2 0x809 DUP3 SLOAD PUSH2 0x610 JUMP JUMPDEST PUSH2 0x814 DUP3 DUP3 DUP6 PUSH2 0x754 JUMP JUMPDEST PUSH0 PUSH1 0x20 SWAP1 POP PUSH1 0x1F DUP4 GT PUSH1 0x1 DUP2 EQ PUSH2 0x845 JUMPI PUSH0 DUP5 ISZERO PUSH2 0x833 JUMPI DUP3 DUP8 ADD MLOAD SWAP1 POP JUMPDEST PUSH2 0x83D DUP6 DUP3 PUSH2 0x7C2 JUMP JUMPDEST DUP7 SSTORE POP PUSH2 0x8A4 JUMP JUMPDEST PUSH1 0x1F NOT DUP5 AND PUSH2 0x853 DUP7 PUSH2 0x640 JUMP JUMPDEST PUSH0 JUMPDEST DUP3 DUP2 LT ISZERO PUSH2 0x87A JUMPI DUP5 DUP10 ADD MLOAD DUP3 SSTORE PUSH1 0x1 DUP3 ADD SWAP2 POP PUSH1 0x20 DUP6 ADD SWAP5 POP PUSH1 0x20 DUP2 ADD SWAP1 POP PUSH2 0x855 JUMP JUMPDEST DUP7 DUP4 LT ISZERO PUSH2 0x897 JUMPI DUP5 DUP10 ADD MLOAD PUSH2 0x893 PUSH1 0x1F DUP10 AND DUP3 PUSH2 0x7A6 JUMP JUMPDEST DUP4 SSTORE POP JUMPDEST PUSH1 0x1 PUSH1 0x2 DUP9 MUL ADD DUP9 SSTORE POP POP POP JUMPDEST POP POP POP POP POP POP JUMP JUMPDEST PUSH2 0x1323 DUP1 PUSH2 0x8B9 PUSH0 CODECOPY PUSH0 RETURN INVALID PUSH1 0x80 PUSH1 0x40 MSTORE CALLVALUE DUP1 ISZERO PUSH2 0xF JUMPI PUSH0 DUP1 REVERT JUMPDEST POP PUSH1 0x4 CALLDATASIZE LT PUSH2 0x9C JUMPI PUSH0 CALLDATALOAD PUSH1 0xE0 SHR DUP1 PUSH4 0x8DA5CB5B GT PUSH2 0x64 JUMPI DUP1 PUSH4 0x8DA5CB5B EQ PUSH2 0x144 JUMPI DUP1 PUSH4 0x9A0E7D66 EQ PUSH2 0x162 JUMPI DUP1 PUSH4 0xBCD8EC7F EQ PUSH2 0x180 JUMPI DUP1 PUSH4 0xC3403DDF EQ PUSH2 0x19F JUMPI DUP1 PUSH4 0xCECB5FC7 EQ PUSH2 0x1A9 JUMPI PUSH2 0x9C JUMP JUMPDEST DUP1 PUSH4 0x1EC6B60A EQ PUSH2 0xA0 JUMPI DUP1 PUSH4 0x2EEA87EA EQ PUSH2 0xAA JUMPI DUP1 PUSH4 0x323082D7 EQ PUSH2 0xDA JUMPI DUP1 PUSH4 0x387BFD1D EQ PUSH2 0xF6 JUMPI DUP1 PUSH4 0x805265E5 EQ PUSH2 0x114 JUMPI JUMPDEST PUSH0 DUP1 REVERT JUMPDEST PUSH2 0xA8 PUSH2 0x1C7 JUMP JUMPDEST STOP JUMPDEST PUSH2 0xC4 PUSH1 0x4 DUP1 CALLDATASIZE SUB DUP2 ADD SWAP1 PUSH2 0xBF SWAP2 SWAP1 PUSH2 0x92F JUMP JUMPDEST PUSH2 0x277 JUMP JUMPDEST PUSH1 0x40 MLOAD PUSH2 0xD1 SWAP2 SWAP1 PUSH2 0x9CA JUMP JUMPDEST PUSH1 0x40 MLOAD DUP1 SWAP2 SUB SWAP1 RETURN JUMPDEST PUSH2 0xF4 PUSH1 0x4 DUP1 CALLDATASIZE SUB DUP2 ADD SWAP1 PUSH2 0xEF SWAP2 SWAP1 PUSH2 0xB16 JUMP JUMPDEST PUSH2 0x31D JUMP JUMPDEST STOP JUMPDEST PUSH2 0xFE PUSH2 0x4D5 JUMP JUMPDEST PUSH1 0x40 MLOAD PUSH2 0x10B SWAP2 SWAP1 PUSH2 0xB77 JUMP JUMPDEST PUSH1 0x40 MLOAD DUP1 SWAP2 SUB SWAP1 RETURN JUMPDEST PUSH2 0x12E PUSH1 0x4 DUP1 CALLDATASIZE SUB DUP2 ADD SWAP1 PUSH2 0x129 SWAP2 SWAP1 PUSH2 0xB16 JUMP JUMPDEST PUSH2 0x4E7 JUMP JUMPDEST PUSH1 0x40 MLOAD PUSH2 0x13B SWAP2 SWAP1 PUSH2 0xB9F JUMP JUMPDEST PUSH1 0x40 MLOAD DUP1 SWAP2 SUB SWAP1 RETURN JUMPDEST PUSH2 0x14C PUSH2 0x50E JUMP JUMPDEST PUSH1 0x40 MLOAD PUSH2 0x159 SWAP2 SWAP1 PUSH2 0xBF7 JUMP JUMPDEST PUSH1 0x40 MLOAD DUP1 SWAP2 SUB SWAP1 RETURN JUMPDEST PUSH2 0x16A PUSH2 0x531 JUMP JUMPDEST PUSH1 0x40 MLOAD PUSH2 0x177 SWAP2 SWAP1 PUSH2 0xB9F JUMP JUMPDEST PUSH1 0x40 MLOAD DUP1 SWAP2 SUB SWAP1 RETURN JUMPDEST PUSH2 0x188 PUSH2 0x5A1 JUMP JUMPDEST PUSH1 0x40 MLOAD PUSH2 0x196 SWAP3 SWAP2 SWAP1 PUSH2 0xC10 JUMP JUMPDEST PUSH1 0x40 MLOAD DUP1 SWAP2 SUB SWAP1 RETURN JUMPDEST PUSH2 0x1A7 PUSH2 0x77A JUMP JUMPDEST STOP JUMPDEST PUSH2 0x1B1 PUSH2 0x873 JUMP JUMPDEST PUSH1 0x40 MLOAD PUSH2 0x1BE SWAP2 SWAP1 PUSH2 0xB9F JUMP JUMPDEST PUSH1 0x40 MLOAD DUP1 SWAP2 SUB SWAP1 RETURN JUMPDEST PUSH0 DUP1 SLOAD SWAP1 PUSH2 0x100 EXP SWAP1 DIV PUSH20 0xFFFFFFFFFFFFFFFFFFFFFFFFFFFFFFFFFFFFFFFF AND PUSH20 0xFFFFFFFFFFFFFFFFFFFFFFFFFFFFFFFFFFFFFFFF AND CALLER PUSH20 0xFFFFFFFFFFFFFFFFFFFFFFFFFFFFFFFFFFFFFFFF AND EQ PUSH2 0x254 JUMPI PUSH1 0x40 MLOAD PUSH32 0x8C379A000000000000000000000000000000000000000000000000000000000 DUP2 MSTORE PUSH1 0x4 ADD PUSH2 0x24B SWAP1 PUSH2 0xCAE JUMP JUMPDEST PUSH1 0x40 MLOAD DUP1 SWAP2 SUB SWAP1 REVERT JUMPDEST PUSH1 0x1 PUSH1 0x2 PUSH0 PUSH2 0x100 EXP DUP2 SLOAD DUP2 PUSH1 0xFF MUL NOT AND SWAP1 DUP4 ISZERO ISZERO MUL OR SWAP1 SSTORE POP NUMBER PUSH1 0x6 DUP2 SWAP1 SSTORE POP JUMP JUMPDEST PUSH1 0x3 DUP2 DUP2 SLOAD DUP2 LT PUSH2 0x286 JUMPI PUSH0 DUP1 REVERT JUMPDEST SWAP1 PUSH0 MSTORE PUSH1 0x20 PUSH0 KECCAK256 ADD PUSH0 SWAP2 POP SWAP1 POP DUP1 SLOAD PUSH2 0x29E SWAP1 PUSH2 0xCF9 JUMP JUMPDEST DUP1 PUSH1 0x1F ADD PUSH1 0x20 DUP1 SWAP2 DIV MUL PUSH1 0x20 ADD PUSH1 0x40 MLOAD SWAP1 DUP2 ADD PUSH1 0x40 MSTORE DUP1 SWAP3 SWAP2 SWAP1 DUP2 DUP2 MSTORE PUSH1 0x20 ADD DUP3 DUP1 SLOAD PUSH2 0x2CA SWAP1 PUSH2 0xCF9 JUMP JUMPDEST DUP1 ISZERO PUSH2 0x315 JUMPI DUP1 PUSH1 0x1F LT PUSH2 0x2EC JUMPI PUSH2 0x100 DUP1 DUP4 SLOAD DIV MUL DUP4 MSTORE SWAP2 PUSH1 0x20 ADD SWAP2 PUSH2 0x315 JUMP JUMPDEST DUP3 ADD SWAP2 SWAP1 PUSH0 MSTORE PUSH1 0x20 PUSH0 KECCAK256 SWAP1 JUMPDEST DUP2 SLOAD DUP2 MSTORE SWAP1 PUSH1 0x1 ADD SWAP1 PUSH1 0x20 ADD DUP1 DUP4 GT PUSH2 0x2F8 JUMPI DUP3 SWAP1 SUB PUSH1 0x1F AND DUP3 ADD SWAP2 JUMPDEST POP POP POP POP POP DUP2 JUMP JUMPDEST PUSH1 0x1 ISZERO ISZERO PUSH1 0x2 PUSH0 SWAP1 SLOAD SWAP1 PUSH2 0x100 EXP SWAP1 DIV PUSH1 0xFF AND ISZERO ISZERO EQ PUSH2 0x372 JUMPI PUSH1 0x40 MLOAD PUSH32 0x8C379A000000000000000000000000000000000000000000000000000000000 DUP2 MSTORE PUSH1 0x4 ADD PUSH2 0x369 SWAP1 PUSH2 0xD73 JUMP JUMPDEST PUSH1 0x40 MLOAD DUP1 SWAP2 SUB SWAP1 REVERT JUMPDEST PUSH2 0x37B DUP2 PUSH2 0x879 JUMP JUMPDEST PUSH2 0x3BA JUMPI PUSH1 0x40 MLOAD PUSH32 0x8C379A000000000000000000000000000000000000000000000000000000000 DUP2 MSTORE PUSH1 0x4 ADD PUSH2 0x3B1 SWAP1 PUSH2 0xDDB JUMP JUMPDEST PUSH1 0x40 MLOAD DUP1 SWAP2 SUB SWAP1 REVERT JUMPDEST PUSH0 ISZERO ISZERO PUSH1 0x4 PUSH0 CALLER PUSH20 0xFFFFFFFFFFFFFFFFFFFFFFFFFFFFFFFFFFFFFFFF AND PUSH20 0xFFFFFFFFFFFFFFFFFFFFFFFFFFFFFFFFFFFFFFFF AND DUP2 MSTORE PUSH1 0x20 ADD SWAP1 DUP2 MSTORE PUSH1 0x20 ADD PUSH0 KECCAK256 PUSH0 SWAP1 SLOAD SWAP1 PUSH2 0x100 EXP SWAP1 DIV PUSH1 0xFF AND ISZERO ISZERO EQ PUSH2 0x449 JUMPI PUSH1 0x40 MLOAD PUSH32 0x8C379A000000000000000000000000000000000000000000000000000000000 DUP2 MSTORE PUSH1 0x4 ADD PUSH2 0x440 SWAP1 PUSH2 0xE43 JUMP JUMPDEST PUSH1 0x40 MLOAD DUP1 SWAP2 SUB SWAP1 REVERT JUMPDEST PUSH1 0x1 PUSH1 0x4 PUSH0 CALLER PUSH20 0xFFFFFFFFFFFFFFFFFFFFFFFFFFFFFFFFFFFFFFFF AND PUSH20 0xFFFFFFFFFFFFFFFFFFFFFFFFFFFFFFFFFFFFFFFF AND DUP2 MSTORE PUSH1 0x20 ADD SWAP1 DUP2 MSTORE PUSH1 0x20 ADD PUSH0 KECCAK256 PUSH0 PUSH2 0x100 EXP DUP2 SLOAD DUP2 PUSH1 0xFF MUL NOT AND SWAP1 DUP4 ISZERO ISZERO MUL OR SWAP1 SSTORE POP PUSH1 0x1 DUP1 DUP3 PUSH1 0x40 MLOAD PUSH2 0x4AF SWAP2 SWAP1 PUSH2 0xE9B JUMP JUMPDEST SWAP1 DUP2 MSTORE PUSH1 0x20 ADD PUSH1 0x40 MLOAD DUP1 SWAP2 SUB SWAP1 KECCAK256 PUSH0 DUP3 DUP3 SLOAD PUSH2 0x4CB SWAP2 SWAP1 PUSH2 0xEDE JUMP JUMPDEST SWAP3 POP POP DUP2 SWAP1 SSTORE POP POP JUMP JUMPDEST PUSH1 0x2 PUSH0 SWAP1 SLOAD SWAP1 PUSH2 0x100 EXP SWAP1 DIV PUSH1 0xFF AND DUP2 JUMP JUMPDEST PUSH0 PUSH1 0x1 DUP3 PUSH1 0x40 MLOAD PUSH2 0x4F8 SWAP2 SWAP1 PUSH2 0xE9B JUMP JUMPDEST SWAP1 DUP2 MSTORE PUSH1 0x20 ADD PUSH1 0x40 MLOAD DUP1 SWAP2 SUB SWAP1 KECCAK256 SLOAD SWAP1 POP SWAP2 SWAP1 POP JUMP JUMPDEST PUSH0 DUP1 SLOAD SWAP1 PUSH2 0x100 EXP SWAP1 DIV PUSH20 0xFFFFFFFFFFFFFFFFFFFFFFFFFFFFFFFFFFFFFFFF AND DUP2 JUMP JUMPDEST PUSH0 DUP1 PUSH0 SWAP1 POP PUSH0 JUMPDEST PUSH1 0x3 DUP1 SLOAD SWAP1 POP DUP2 LT ISZERO PUSH2 0x599 JUMPI PUSH1 0x1 PUSH1 0x3 DUP3 DUP2 SLOAD DUP2 LT PUSH2 0x55B JUMPI PUSH2 0x55A PUSH2 0xF11 JUMP JUMPDEST JUMPDEST SWAP1 PUSH0 MSTORE PUSH1 0x20 PUSH0 KECCAK256 ADD PUSH1 0x40 MLOAD PUSH2 0x570 SWAP2 SWAP1 PUSH2 0xFD0 JUMP JUMPDEST SWAP1 DUP2 MSTORE PUSH1 0x20 ADD PUSH1 0x40 MLOAD DUP1 SWAP2 SUB SWAP1 KECCAK256 SLOAD DUP3 PUSH2 0x58A SWAP2 SWAP1 PUSH2 0xEDE JUMP JUMPDEST SWAP2 POP DUP1 DUP1 PUSH1 0x1 ADD SWAP2 POP POP PUSH2 0x538 JUMP JUMPDEST POP DUP1 SWAP2 POP POP SWAP1 JUMP JUMPDEST PUSH1 0x60 PUSH0 DUP1 ISZERO ISZERO PUSH1 0x2 PUSH0 SWAP1 SLOAD SWAP1 PUSH2 0x100 EXP SWAP1 DIV PUSH1 0xFF AND ISZERO ISZERO EQ PUSH2 0x5F8 JUMPI PUSH1 0x40 MLOAD PUSH32 0x8C379A000000000000000000000000000000000000000000000000000000000 DUP2 MSTORE PUSH1 0x4 ADD PUSH2 0x5EF SWAP1 PUSH2 0x1056 JUMP JUMPDEST PUSH1 0x40 MLOAD DUP1 SWAP2 SUB SWAP1 REVERT JUMPDEST PUSH0 PUSH1 0x40 MLOAD DUP1 PUSH1 0x20 ADD PUSH1 0x40 MSTORE DUP1 PUSH0 DUP2 MSTORE POP SWAP1 POP PUSH0 DUP1 JUMPDEST PUSH1 0x3 DUP1 SLOAD SWAP1 POP DUP2 LT ISZERO PUSH2 0x74A JUMPI DUP2 PUSH1 0x1 PUSH1 0x3 DUP4 DUP2 SLOAD DUP2 LT PUSH2 0x631 JUMPI PUSH2 0x630 PUSH2 0xF11 JUMP JUMPDEST JUMPDEST SWAP1 PUSH0 MSTORE PUSH1 0x20 PUSH0 KECCAK256 ADD PUSH1 0x40 MLOAD PUSH2 0x646 SWAP2 SWAP1 PUSH2 0xFD0 JUMP JUMPDEST SWAP1 DUP2 MSTORE PUSH1 0x20 ADD PUSH1 0x40 MLOAD DUP1 SWAP2 SUB SWAP1 KECCAK256 SLOAD GT ISZERO PUSH2 0x73D JUMPI PUSH1 0x1 PUSH1 0x3 DUP3 DUP2 SLOAD DUP2 LT PUSH2 0x671 JUMPI PUSH2 0x670 PUSH2 0xF11 JUMP JUMPDEST JUMPDEST SWAP1 PUSH0 MSTORE PUSH1 0x20 PUSH0 KECCAK256 ADD PUSH1 0x40 MLOAD PUSH2 0x686 SWAP2 SWAP1 PUSH2 0xFD0 JUMP JUMPDEST SWAP1 DUP2 MSTORE PUSH1 0x20 ADD PUSH1 0x40 MLOAD DUP1 SWAP2 SUB SWAP1 KECCAK256 SLOAD SWAP2 POP PUSH1 0x3 DUP2 DUP2 SLOAD DUP2 LT PUSH2 0x6AB JUMPI PUSH2 0x6AA PUSH2 0xF11 JUMP JUMPDEST JUMPDEST SWAP1 PUSH0 MSTORE PUSH1 0x20 PUSH0 KECCAK256 ADD DUP1 SLOAD PUSH2 0x6BE SWAP1 PUSH2 0xCF9 JUMP JUMPDEST DUP1 PUSH1 0x1F ADD PUSH1 0x20 DUP1 SWAP2 DIV MUL PUSH1 0x20 ADD PUSH1 0x40 MLOAD SWAP1 DUP2 ADD PUSH1 0x40 MSTORE DUP1 SWAP3 SWAP2 SWAP1 DUP2 DUP2 MSTORE PUSH1 0x20 ADD DUP3 DUP1 SLOAD PUSH2 0x6EA SWAP1 PUSH2 0xCF9 JUMP JUMPDEST DUP1 ISZERO PUSH2 0x735 JUMPI DUP1 PUSH1 0x1F LT PUSH2 0x70C JUMPI PUSH2 0x100 DUP1 DUP4 SLOAD DIV MUL DUP4 MSTORE SWAP2 PUSH1 0x20 ADD SWAP2 PUSH2 0x735 JUMP JUMPDEST DUP3 ADD SWAP2 SWAP1 PUSH0 MSTORE PUSH1 0x20 PUSH0 KECCAK256 SWAP1 JUMPDEST DUP2 SLOAD DUP2 MSTORE SWAP1 PUSH1 0x1 ADD SWAP1 PUSH1 0x20 ADD DUP1 DUP4 GT PUSH2 0x718 JUMPI DUP3 SWAP1 SUB PUSH1 0x1F AND DUP3 ADD SWAP2 JUMPDEST POP POP POP POP POP SWAP3 POP JUMPDEST DUP1 DUP1 PUSH1 0x1 ADD SWAP2 POP POP PUSH2 0x60D JUMP JUMPDEST POP PUSH0 PUSH2 0x754 PUSH2 0x531 JUMP JUMPDEST PUSH1 0x64 DUP4 PUSH2 0x761 SWAP2 SWAP1 PUSH2 0x1074 JUMP JUMPDEST PUSH2 0x76B SWAP2 SWAP1 PUSH2 0x10E2 JUMP JUMPDEST SWAP1 POP DUP3 DUP2 SWAP5 POP SWAP5 POP POP POP POP SWAP1 SWAP2 JUMP JUMPDEST PUSH0 DUP1 SLOAD SWAP1 PUSH2 0x100 EXP SWAP1 DIV PUSH20 0xFFFFFFFFFFFFFFFFFFFFFFFFFFFFFFFFFFFFFFFF AND PUSH20 0xFFFFFFFFFFFFFFFFFFFFFFFFFFFFFFFFFFFFFFFF AND CALLER PUSH20 0xFFFFFFFFFFFFFFFFFFFFFFFFFFFFFFFFFFFFFFFF AND EQ PUSH2 0x807 JUMPI PUSH1 0x40 MLOAD PUSH32 0x8C379A000000000000000000000000000000000000000000000000000000000 DUP2 MSTORE PUSH1 0x4 ADD PUSH2 0x7FE SWAP1 PUSH2 0x1182 JUMP JUMPDEST PUSH1 0x40 MLOAD DUP1 SWAP2 SUB SWAP1 REVERT JUMPDEST PUSH1 0x5 SLOAD PUSH1 0x6 SLOAD NUMBER PUSH2 0x818 SWAP2 SWAP1 PUSH2 0x11A0 JUMP JUMPDEST GT PUSH2 0x858 JUMPI PUSH1 0x40 MLOAD PUSH32 0x8C379A000000000000000000000000000000000000000000000000000000000 DUP2 MSTORE PUSH1 0x4 ADD PUSH2 0x84F SWAP1 PUSH2 0x121D JUMP JUMPDEST PUSH1 0x40 MLOAD DUP1 SWAP2 SUB SWAP1 REVERT JUMPDEST PUSH0 PUSH1 0x2 PUSH0 PUSH2 0x100 EXP DUP2 SLOAD DUP2 PUSH1 0xFF MUL NOT AND SWAP1 DUP4 ISZERO ISZERO MUL OR SWAP1 SSTORE POP JUMP JUMPDEST PUSH1 0x5 SLOAD DUP2 JUMP JUMPDEST PUSH0 DUP1 PUSH0 SWAP1 POP JUMPDEST PUSH1 0x3 DUP1 SLOAD SWAP1 POP DUP2 LT ISZERO PUSH2 0x8E1 JUMPI DUP3 DUP1 MLOAD SWAP1 PUSH1 0x20 ADD KECCAK256 PUSH1 0x3 DUP3 DUP2 SLOAD DUP2 LT PUSH2 0x8A8 JUMPI PUSH2 0x8A7 PUSH2 0xF11 JUMP JUMPDEST JUMPDEST SWAP1 PUSH0 MSTORE PUSH1 0x20 PUSH0 KECCAK256 ADD PUSH1 0x40 MLOAD PUSH2 0x8BD SWAP2 SWAP1 PUSH2 0x12D7 JUMP JUMPDEST PUSH1 0x40 MLOAD DUP1 SWAP2 SUB SWAP1 KECCAK256 SUB PUSH2 0x8D4 JUMPI PUSH1 0x1 SWAP2 POP POP PUSH2 0x8E6 JUMP JUMPDEST DUP1 DUP1 PUSH1 0x1 ADD SWAP2 POP POP PUSH2 0x87F JUMP JUMPDEST POP PUSH0 SWAP1 POP JUMPDEST SWAP2 SWAP1 POP JUMP JUMPDEST PUSH0 PUSH1 0x40 MLOAD SWAP1 POP SWAP1 JUMP JUMPDEST PUSH0 DUP1 REVERT JUMPDEST PUSH0 DUP1 REVERT JUMPDEST PUSH0 DUP2 SWAP1 POP SWAP2 SWAP1 POP JUMP JUMPDEST PUSH2 0x90E DUP2 PUSH2 0x8FC JUMP JUMPDEST DUP2 EQ PUSH2 0x918 JUMPI PUSH0 DUP1 REVERT JUMPDEST POP JUMP JUMPDEST PUSH0 DUP2 CALLDATALOAD SWAP1 POP PUSH2 0x929 DUP2 PUSH2 0x905 JUMP JUMPDEST SWAP3 SWAP2 POP POP JUMP JUMPDEST PUSH0 PUSH1 0x20 DUP3 DUP5 SUB SLT ISZERO PUSH2 0x944 JUMPI PUSH2 0x943 PUSH2 0x8F4 JUMP JUMPDEST JUMPDEST PUSH0 PUSH2 0x951 DUP5 DUP3 DUP6 ADD PUSH2 0x91B JUMP JUMPDEST SWAP2 POP POP SWAP3 SWAP2 POP POP JUMP JUMPDEST PUSH0 DUP2 MLOAD SWAP1 POP SWAP2 SWAP1 POP JUMP JUMPDEST PUSH0 DUP3 DUP3 MSTORE PUSH1 0x20 DUP3 ADD SWAP1 POP SWAP3 SWAP2 POP POP JUMP JUMPDEST DUP3 DUP2 DUP4 MCOPY PUSH0 DUP4 DUP4 ADD MSTORE POP POP POP JUMP JUMPDEST PUSH0 PUSH1 0x1F NOT PUSH1 0x1F DUP4 ADD AND SWAP1 POP SWAP2 SWAP1 POP JUMP JUMPDEST PUSH0 PUSH2 0x99C DUP3 PUSH2 0x95A JUMP JUMPDEST PUSH2 0x9A6 DUP2 DUP6 PUSH2 0x964 JUMP JUMPDEST SWAP4 POP PUSH2 0x9B6 DUP2 DUP6 PUSH1 0x20 DUP7 ADD PUSH2 0x974 JUMP JUMPDEST PUSH2 0x9BF DUP2 PUSH2 0x982 JUMP JUMPDEST DUP5 ADD SWAP2 POP POP SWAP3 SWAP2 POP POP JUMP JUMPDEST PUSH0 PUSH1 0x20 DUP3 ADD SWAP1 POP DUP2 DUP2 SUB PUSH0 DUP4 ADD MSTORE PUSH2 0x9E2 DUP2 DUP5 PUSH2 0x992 JUMP JUMPDEST SWAP1 POP SWAP3 SWAP2 POP POP JUMP JUMPDEST PUSH0 DUP1 REVERT JUMPDEST PUSH0 DUP1 REVERT JUMPDEST PUSH32 0x4E487B7100000000000000000000000000000000000000000000000000000000 PUSH0 MSTORE PUSH1 0x41 PUSH1 0x4 MSTORE PUSH1 0x24 PUSH0 REVERT JUMPDEST PUSH2 0xA28 DUP3 PUSH2 0x982 JUMP JUMPDEST DUP2 ADD DUP2 DUP2 LT PUSH8 0xFFFFFFFFFFFFFFFF DUP3 GT OR ISZERO PUSH2 0xA47 JUMPI PUSH2 0xA46 PUSH2 0x9F2 JUMP JUMPDEST JUMPDEST DUP1 PUSH1 0x40 MSTORE POP POP POP JUMP JUMPDEST PUSH0 PUSH2 0xA59 PUSH2 0x8EB JUMP JUMPDEST SWAP1 POP PUSH2 0xA65 DUP3 DUP3 PUSH2 0xA1F JUMP JUMPDEST SWAP2 SWAP1 POP JUMP JUMPDEST PUSH0 PUSH8 0xFFFFFFFFFFFFFFFF DUP3 GT ISZERO PUSH2 0xA84 JUMPI PUSH2 0xA83 PUSH2 0x9F2 JUMP JUMPDEST JUMPDEST PUSH2 0xA8D DUP3 PUSH2 0x982 JUMP JUMPDEST SWAP1 POP PUSH1 0x20 DUP2 ADD SWAP1 POP SWAP2 SWAP1 POP JUMP JUMPDEST DUP3 DUP2 DUP4 CALLDATACOPY PUSH0 DUP4 DUP4 ADD MSTORE POP POP POP JUMP JUMPDEST PUSH0 PUSH2 0xABA PUSH2 0xAB5 DUP5 PUSH2 0xA6A JUMP JUMPDEST PUSH2 0xA50 JUMP JUMPDEST SWAP1 POP DUP3 DUP2 MSTORE PUSH1 0x20 DUP2 ADD DUP5 DUP5 DUP5 ADD GT ISZERO PUSH2 0xAD6 JUMPI PUSH2 0xAD5 PUSH2 0x9EE JUMP JUMPDEST JUMPDEST PUSH2 0xAE1 DUP5 DUP3 DUP6 PUSH2 0xA9A JUMP JUMPDEST POP SWAP4 SWAP3 POP POP POP JUMP JUMPDEST PUSH0 DUP3 PUSH1 0x1F DUP4 ADD SLT PUSH2 0xAFD JUMPI PUSH2 0xAFC PUSH2 0x9EA JUMP JUMPDEST JUMPDEST DUP2 CALLDATALOAD PUSH2 0xB0D DUP5 DUP3 PUSH1 0x20 DUP7 ADD PUSH2 0xAA8 JUMP JUMPDEST SWAP2 POP POP SWAP3 SWAP2 POP POP JUMP JUMPDEST PUSH0 PUSH1 0x20 DUP3 DUP5 SUB SLT ISZERO PUSH2 0xB2B JUMPI PUSH2 0xB2A PUSH2 0x8F4 JUMP JUMPDEST JUMPDEST PUSH0 DUP3 ADD CALLDATALOAD PUSH8 0xFFFFFFFFFFFFFFFF DUP2 GT ISZERO PUSH2 0xB48 JUMPI PUSH2 0xB47 PUSH2 0x8F8 JUMP JUMPDEST JUMPDEST PUSH2 0xB54 DUP5 DUP3 DUP6 ADD PUSH2 0xAE9 JUMP JUMPDEST SWAP2 POP POP SWAP3 SWAP2 POP POP JUMP JUMPDEST PUSH0 DUP2 ISZERO ISZERO SWAP1 POP SWAP2 SWAP1 POP JUMP JUMPDEST PUSH2 0xB71 DUP2 PUSH2 0xB5D JUMP JUMPDEST DUP3 MSTORE POP POP JUMP JUMPDEST PUSH0 PUSH1 0x20 DUP3 ADD SWAP1 POP PUSH2 0xB8A PUSH0 DUP4 ADD DUP5 PUSH2 0xB68 JUMP JUMPDEST SWAP3 SWAP2 POP POP JUMP JUMPDEST PUSH2 0xB99 DUP2 PUSH2 0x8FC JUMP JUMPDEST DUP3 MSTORE POP POP JUMP JUMPDEST PUSH0 PUSH1 0x20 DUP3 ADD SWAP1 POP PUSH2 0xBB2 PUSH0 DUP4 ADD DUP5 PUSH2 0xB90 JUMP JUMPDEST SWAP3 SWAP2 POP POP JUMP JUMPDEST PUSH0 PUSH20 0xFFFFFFFFFFFFFFFFFFFFFFFFFFFFFFFFFFFFFFFF DUP3 AND SWAP1 POP SWAP2 SWAP1 POP JUMP JUMPDEST PUSH0 PUSH2 0xBE1 DUP3 PUSH2 0xBB8 JUMP JUMPDEST SWAP1 POP SWAP2 SWAP1 POP JUMP JUMPDEST PUSH2 0xBF1 DUP2 PUSH2 0xBD7 JUMP JUMPDEST DUP3 MSTORE POP POP JUMP JUMPDEST PUSH0 PUSH1 0x20 DUP3 ADD SWAP1 POP PUSH2 0xC0A PUSH0 DUP4 ADD DUP5 PUSH2 0xBE8 JUMP JUMPDEST SWAP3 SWAP2 POP POP JUMP JUMPDEST PUSH0 PUSH1 0x40 DUP3 ADD SWAP1 POP DUP2 DUP2 SUB PUSH0 DUP4 ADD MSTORE PUSH2 0xC28 DUP2 DUP6 PUSH2 0x992 JUMP JUMPDEST SWAP1 POP PUSH2 0xC37 PUSH1 0x20 DUP4 ADD DUP5 PUSH2 0xB90 JUMP JUMPDEST SWAP4 SWAP3 POP POP POP JUMP JUMPDEST PUSH32 0x4E7572204265736974657220646172662064617320566F74696E672073746172 PUSH0 DUP3 ADD MSTORE PUSH32 0x74656E0000000000000000000000000000000000000000000000000000000000 PUSH1 0x20 DUP3 ADD MSTORE POP JUMP JUMPDEST PUSH0 PUSH2 0xC98 PUSH1 0x23 DUP4 PUSH2 0x964 JUMP JUMPDEST SWAP2 POP PUSH2 0xCA3 DUP3 PUSH2 0xC3E JUMP JUMPDEST PUSH1 0x40 DUP3 ADD SWAP1 POP SWAP2 SWAP1 POP JUMP JUMPDEST PUSH0 PUSH1 0x20 DUP3 ADD SWAP1 POP DUP2 DUP2 SUB PUSH0 DUP4 ADD MSTORE PUSH2 0xCC5 DUP2 PUSH2 0xC8C JUMP JUMPDEST SWAP1 POP SWAP2 SWAP1 POP JUMP JUMPDEST PUSH32 0x4E487B7100000000000000000000000000000000000000000000000000000000 PUSH0 MSTORE PUSH1 0x22 PUSH1 0x4 MSTORE PUSH1 0x24 PUSH0 REVERT JUMPDEST PUSH0 PUSH1 0x2 DUP3 DIV SWAP1 POP PUSH1 0x1 DUP3 AND DUP1 PUSH2 0xD10 JUMPI PUSH1 0x7F DUP3 AND SWAP2 POP JUMPDEST PUSH1 0x20 DUP3 LT DUP2 SUB PUSH2 0xD23 JUMPI PUSH2 0xD22 PUSH2 0xCCC JUMP JUMPDEST JUMPDEST POP SWAP2 SWAP1 POP JUMP JUMPDEST PUSH32 0x4469652041627374696D6D756E6720697374206E6963687420616B7469760000 PUSH0 DUP3 ADD MSTORE POP JUMP JUMPDEST PUSH0 PUSH2 0xD5D PUSH1 0x1E DUP4 PUSH2 0x964 JUMP JUMPDEST SWAP2 POP PUSH2 0xD68 DUP3 PUSH2 0xD29 JUMP JUMPDEST PUSH1 0x20 DUP3 ADD SWAP1 POP SWAP2 SWAP1 POP JUMP JUMPDEST PUSH0 PUSH1 0x20 DUP3 ADD SWAP1 POP DUP2 DUP2 SUB PUSH0 DUP4 ADD MSTORE PUSH2 0xD8A DUP2 PUSH2 0xD51 JUMP JUMPDEST SWAP1 POP SWAP2 SWAP1 POP JUMP JUMPDEST PUSH32 0x4469652041627374696D6D756E672069737420756E6775656C74696700000000 PUSH0 DUP3 ADD MSTORE POP JUMP JUMPDEST PUSH0 PUSH2 0xDC5 PUSH1 0x1C DUP4 PUSH2 0x964 JUMP JUMPDEST SWAP2 POP PUSH2 0xDD0 DUP3 PUSH2 0xD91 JUMP JUMPDEST PUSH1 0x20 DUP3 ADD SWAP1 POP SWAP2 SWAP1 POP JUMP JUMPDEST PUSH0 PUSH1 0x20 DUP3 ADD SWAP1 POP DUP2 DUP2 SUB PUSH0 DUP4 ADD MSTORE PUSH2 0xDF2 DUP2 PUSH2 0xDB9 JUMP JUMPDEST SWAP1 POP SWAP2 SWAP1 POP JUMP JUMPDEST PUSH32 0x53696520686162656E207363686F6E20616267657374696D6D74000000000000 PUSH0 DUP3 ADD MSTORE POP JUMP JUMPDEST PUSH0 PUSH2 0xE2D PUSH1 0x1A DUP4 PUSH2 0x964 JUMP JUMPDEST SWAP2 POP PUSH2 0xE38 DUP3 PUSH2 0xDF9 JUMP JUMPDEST PUSH1 0x20 DUP3 ADD SWAP1 POP SWAP2 SWAP1 POP JUMP JUMPDEST PUSH0 PUSH1 0x20 DUP3 ADD SWAP1 POP DUP2 DUP2 SUB PUSH0 DUP4 ADD MSTORE PUSH2 0xE5A DUP2 PUSH2 0xE21 JUMP JUMPDEST SWAP1 POP SWAP2 SWAP1 POP JUMP JUMPDEST PUSH0 DUP2 SWAP1 POP SWAP3 SWAP2 POP POP JUMP JUMPDEST PUSH0 PUSH2 0xE75 DUP3 PUSH2 0x95A JUMP JUMPDEST PUSH2 0xE7F DUP2 DUP6 PUSH2 0xE61 JUMP JUMPDEST SWAP4 POP PUSH2 0xE8F DUP2 DUP6 PUSH1 0x20 DUP7 ADD PUSH2 0x974 JUMP JUMPDEST DUP1 DUP5 ADD SWAP2 POP POP SWAP3 SWAP2 POP POP JUMP JUMPDEST PUSH0 PUSH2 0xEA6 DUP3 DUP5 PUSH2 0xE6B JUMP JUMPDEST SWAP2 POP DUP2 SWAP1 POP SWAP3 SWAP2 POP POP JUMP JUMPDEST PUSH32 0x4E487B7100000000000000000000000000000000000000000000000000000000 PUSH0 MSTORE PUSH1 0x11 PUSH1 0x4 MSTORE PUSH1 0x24 PUSH0 REVERT JUMPDEST PUSH0 PUSH2 0xEE8 DUP3 PUSH2 0x8FC JUMP JUMPDEST SWAP2 POP PUSH2 0xEF3 DUP4 PUSH2 0x8FC JUMP JUMPDEST SWAP3 POP DUP3 DUP3 ADD SWAP1 POP DUP1 DUP3 GT ISZERO PUSH2 0xF0B JUMPI PUSH2 0xF0A PUSH2 0xEB1 JUMP JUMPDEST JUMPDEST SWAP3 SWAP2 POP POP JUMP JUMPDEST PUSH32 0x4E487B7100000000000000000000000000000000000000000000000000000000 PUSH0 MSTORE PUSH1 0x32 PUSH1 0x4 MSTORE PUSH1 0x24 PUSH0 REVERT JUMPDEST PUSH0 DUP2 SWAP1 POP DUP2 PUSH0 MSTORE PUSH1 0x20 PUSH0 KECCAK256 SWAP1 POP SWAP2 SWAP1 POP JUMP JUMPDEST PUSH0 DUP2 SLOAD PUSH2 0xF5C DUP2 PUSH2 0xCF9 JUMP JUMPDEST PUSH2 0xF66 DUP2 DUP7 PUSH2 0xE61 JUMP JUMPDEST SWAP5 POP PUSH1 0x1 DUP3 AND PUSH0 DUP2 EQ PUSH2 0xF80 JUMPI PUSH1 0x1 DUP2 EQ PUSH2 0xF95 JUMPI PUSH2 0xFC7 JUMP JUMPDEST PUSH1 0xFF NOT DUP4 AND DUP7 MSTORE DUP2 ISZERO ISZERO DUP3 MUL DUP7 ADD SWAP4 POP PUSH2 0xFC7 JUMP JUMPDEST PUSH2 0xF9E DUP6 PUSH2 0xF3E JUMP JUMPDEST PUSH0 JUMPDEST DUP4 DUP2 LT ISZERO PUSH2 0xFBF JUMPI DUP2 SLOAD DUP2 DUP10 ADD MSTORE PUSH1 0x1 DUP3 ADD SWAP2 POP PUSH1 0x20 DUP2 ADD SWAP1 POP PUSH2 0xFA0 JUMP JUMPDEST DUP4 DUP9 ADD SWAP6 POP POP POP JUMPDEST POP POP POP SWAP3 SWAP2 POP POP JUMP JUMPDEST PUSH0 PUSH2 0xFDB DUP3 DUP5 PUSH2 0xF50 JUMP JUMPDEST SWAP2 POP DUP2 SWAP1 POP SWAP3 SWAP2 POP POP JUMP JUMPDEST PUSH32 0x41627374696D6D756E6720697374206E6F636820616B7469762E204572676562 PUSH0 DUP3 ADD MSTORE PUSH32 0x6E697320697374206E6F6368206E6963687420766572667565676261722E0000 PUSH1 0x20 DUP3 ADD MSTORE POP JUMP JUMPDEST PUSH0 PUSH2 0x1040 PUSH1 0x3E DUP4 PUSH2 0x964 JUMP JUMPDEST SWAP2 POP PUSH2 0x104B DUP3 PUSH2 0xFE6 JUMP JUMPDEST PUSH1 0x40 DUP3 ADD SWAP1 POP SWAP2 SWAP1 POP JUMP JUMPDEST PUSH0 PUSH1 0x20 DUP3 ADD SWAP1 POP DUP2 DUP2 SUB PUSH0 DUP4 ADD MSTORE PUSH2 0x106D DUP2 PUSH2 0x1034 JUMP JUMPDEST SWAP1 POP SWAP2 SWAP1 POP JUMP JUMPDEST PUSH0 PUSH2 0x107E DUP3 PUSH2 0x8FC JUMP JUMPDEST SWAP2 POP PUSH2 0x1089 DUP4 PUSH2 0x8FC JUMP JUMPDEST SWAP3 POP DUP3 DUP3 MUL PUSH2 0x1097 DUP2 PUSH2 0x8FC JUMP JUMPDEST SWAP2 POP DUP3 DUP3 DIV DUP5 EQ DUP4 ISZERO OR PUSH2 0x10AE JUMPI PUSH2 0x10AD PUSH2 0xEB1 JUMP JUMPDEST JUMPDEST POP SWAP3 SWAP2 POP POP JUMP JUMPDEST PUSH32 0x4E487B7100000000000000000000000000000000000000000000000000000000 PUSH0 MSTORE PUSH1 0x12 PUSH1 0x4 MSTORE PUSH1 0x24 PUSH0 REVERT JUMPDEST PUSH0 PUSH2 0x10EC DUP3 PUSH2 0x8FC JUMP JUMPDEST SWAP2 POP PUSH2 0x10F7 DUP4 PUSH2 0x8FC JUMP JUMPDEST SWAP3 POP DUP3 PUSH2 0x1107 JUMPI PUSH2 0x1106 PUSH2 0x10B5 JUMP JUMPDEST JUMPDEST DUP3 DUP3 DIV SWAP1 POP SWAP3 SWAP2 POP POP JUMP JUMPDEST PUSH32 0x4E7572204265736974657220646172662064617320566F74696E67206265656E PUSH0 DUP3 ADD MSTORE PUSH32 0x64656E0000000000000000000000000000000000000000000000000000000000 PUSH1 0x20 DUP3 ADD MSTORE POP JUMP JUMPDEST PUSH0 PUSH2 0x116C PUSH1 0x23 DUP4 PUSH2 0x964 JUMP JUMPDEST SWAP2 POP PUSH2 0x1177 DUP3 PUSH2 0x1112 JUMP JUMPDEST PUSH1 0x40 DUP3 ADD SWAP1 POP SWAP2 SWAP1 POP JUMP JUMPDEST PUSH0 PUSH1 0x20 DUP3 ADD SWAP1 POP DUP2 DUP2 SUB PUSH0 DUP4 ADD MSTORE PUSH2 0x1199 DUP2 PUSH2 0x1160 JUMP JUMPDEST SWAP1 POP SWAP2 SWAP1 POP JUMP JUMPDEST PUSH0 PUSH2 0x11AA DUP3 PUSH2 0x8FC JUMP JUMPDEST SWAP2 POP PUSH2 0x11B5 DUP4 PUSH2 0x8FC JUMP JUMPDEST SWAP3 POP DUP3 DUP3 SUB SWAP1 POP DUP2 DUP2 GT ISZERO PUSH2 0x11CD JUMPI PUSH2 0x11CC PUSH2 0xEB1 JUMP JUMPDEST JUMPDEST SWAP3 SWAP2 POP POP JUMP JUMPDEST PUSH32 0x5A656974206E6F6368206E6963687420616267656C617566656E000000000000 PUSH0 DUP3 ADD MSTORE POP JUMP JUMPDEST PUSH0 PUSH2 0x1207 PUSH1 0x1A DUP4 PUSH2 0x964 JUMP JUMPDEST SWAP2 POP PUSH2 0x1212 DUP3 PUSH2 0x11D3 JUMP JUMPDEST PUSH1 0x20 DUP3 ADD SWAP1 POP SWAP2 SWAP1 POP JUMP JUMPDEST PUSH0 PUSH1 0x20 DUP3 ADD SWAP1 POP DUP2 DUP2 SUB PUSH0 DUP4 ADD MSTORE PUSH2 0x1234 DUP2 PUSH2 0x11FB JUMP JUMPDEST SWAP1 POP SWAP2 SWAP1 POP JUMP JUMPDEST PUSH0 DUP2 SWAP1 POP SWAP3 SWAP2 POP POP JUMP JUMPDEST PUSH0 DUP2 SWAP1 POP DUP2 PUSH0 MSTORE PUSH1 0x20 PUSH0 KECCAK256 SWAP1 POP SWAP2 SWAP1 POP JUMP JUMPDEST PUSH0 DUP2 SLOAD PUSH2 0x1263 DUP2 PUSH2 0xCF9 JUMP JUMPDEST PUSH2 0x126D DUP2 DUP7 PUSH2 0x123B JUMP JUMPDEST SWAP5 POP PUSH1 0x1 DUP3 AND PUSH0 DUP2 EQ PUSH2 0x1287 JUMPI PUSH1 0x1 DUP2 EQ PUSH2 0x129C JUMPI PUSH2 0x12CE JUMP JUMPDEST PUSH1 0xFF NOT DUP4 AND DUP7 MSTORE DUP2 ISZERO ISZERO DUP3 MUL DUP7 ADD SWAP4 POP PUSH2 0x12CE JUMP JUMPDEST PUSH2 0x12A5 DUP6 PUSH2 0x1245 JUMP JUMPDEST PUSH0 JUMPDEST DUP4 DUP2 LT ISZERO PUSH2 0x12C6 JUMPI DUP2 SLOAD DUP2 DUP10 ADD MSTORE PUSH1 0x1 DUP3 ADD SWAP2 POP PUSH1 0x20 DUP2 ADD SWAP1 POP PUSH2 0x12A7 JUMP JUMPDEST DUP4 DUP9 ADD SWAP6 POP POP POP JUMPDEST POP POP POP SWAP3 SWAP2 POP POP JUMP JUMPDEST PUSH0 PUSH2 0x12E2 DUP3 DUP5 PUSH2 0x1257 JUMP JUMPDEST SWAP2 POP DUP2 SWAP1 POP SWAP3 SWAP2 POP POP JUMP INVALID LOG2 PUSH5 0x6970667358 0x22 SLT KECCAK256 STOP CALL 0xB3 0xDB PUSH18 0x90E6883637F8C5DE65BFE2836BA42EB24C40 0x23 0xBB GASLIMIT CREATE2 PUSH1 0xA7 GT MSIZE EQ PUSH5 0x736F6C6343 STOP ADDMOD BYTE STOP CALLER "
		},
		"gasEstimates": {
			"creation": {
				"codeDepositCost": "979800",
				"executionCost": "infinite",
				"totalCost": "infinite"
			},
			"external": {
				"Vote(string)": "infinite",
				"WinningOption()": "infinite",
				"endVoting()": "infinite",
				"getTotalVotes()": "infinite",
				"getVotes(string)": "infinite",
				"optionen(uint256)": "infinite",
				"owner()": "2505",
				"startVoting()": "48689",
				"votingactive()": "2533",
				"waitingPeriodInBlocks()": "2513"
			},
			"internal": {
				"isValidOption(string memory)": "infinite"
			}
		},
		"methodIdentifiers": {
			"Vote(string)": "323082d7",
			"WinningOption()": "bcd8ec7f",
			"endVoting()": "c3403ddf",
			"getTotalVotes()": "9a0e7d66",
			"getVotes(string)": "805265e5",
			"optionen(uint256)": "2eea87ea",
			"owner()": "8da5cb5b",
			"startVoting()": "1ec6b60a",
			"votingactive()": "387bfd1d",
			"waitingPeriodInBlocks()": "cecb5fc7"
		}
	},
	"abi": [
		{
			"inputs": [
				{
					"internalType": "string[]",
					"name": "Namen_Optionen",
					"type": "string[]"
				},
				{
					"internalType": "uint256",
					"name": "_waitingPeriodInBlocks",
					"type": "uint256"
				}
			],
			"stateMutability": "nonpayable",
			"type": "constructor"
		},
		{
			"inputs": [
				{
					"internalType": "string",
					"name": "option",
					"type": "string"
				}
			],
			"name": "Vote",
			"outputs": [],
			"stateMutability": "nonpayable",
			"type": "function"
		},
		{
			"inputs": [],
			"name": "WinningOption",
			"outputs": [
				{
					"internalType": "string",
					"name": "",
					"type": "string"
				},
				{
					"internalType": "uint256",
					"name": "",
					"type": "uint256"
				}
			],
			"stateMutability": "view",
			"type": "function"
		},
		{
			"inputs": [],
			"name": "endVoting",
			"outputs": [],
			"stateMutability": "nonpayable",
			"type": "function"
		},
		{
			"inputs": [],
			"name": "getTotalVotes",
			"outputs": [
				{
					"internalType": "uint256",
					"name": "",
					"type": "uint256"
				}
			],
			"stateMutability": "view",
			"type": "function"
		},
		{
			"inputs": [
				{
					"internalType": "string",
					"name": "option",
					"type": "string"
				}
			],
			"name": "getVotes",
			"outputs": [
				{
					"internalType": "uint256",
					"name": "",
					"type": "uint256"
				}
			],
			"stateMutability": "view",
			"type": "function"
		},
		{
			"inputs": [
				{
					"internalType": "uint256",
					"name": "",
					"type": "uint256"
				}
			],
			"name": "optionen",
			"outputs": [
				{
					"internalType": "string",
					"name": "",
					"type": "string"
				}
			],
			"stateMutability": "view",
			"type": "function"
		},
		{
			"inputs": [],
			"name": "owner",
			"outputs": [
				{
					"internalType": "address",
					"name": "",
					"type": "address"
				}
			],
			"stateMutability": "view",
			"type": "function"
		},
		{
			"inputs": [],
			"name": "startVoting",
			"outputs": [],
			"stateMutability": "nonpayable",
			"type": "function"
		},
		{
			"inputs": [],
			"name": "votingactive",
			"outputs": [
				{
					"internalType": "bool",
					"name": "",
					"type": "bool"
				}
			],
			"stateMutability": "view",
			"type": "function"
		},
		{
			"inputs": [],
			"name": "waitingPeriodInBlocks",
			"outputs": [
				{
					"internalType": "uint256",
					"name": "",
					"type": "uint256"
				}
			],
			"stateMutability": "view",
			"type": "function"
		}
	]
}